:040800000CEF04F005
:10080800FACF19F1FBCF1AF1E9CF1BF115ED0AF078
:1008180000EE00F010EE0CF014EC04F016EF08F007
:0E082800EE6AE550E150FCE1E250FAE1120008
:10100000005265666C6578546573742E4320202009
:101010002020202020005242313A737461727420E3
:101020005242303A7465737420200000000E926EB4
:101030009368000E946E000E956E0101026F0F0E04
:10104000C16E010102516DEC0BF00101026F000E47
:1010500001010101056F010102510101036F000E41
:1010600001010101046F01010351F9EC0BF0000EC5
:1010700001010101006F000E0101016F0101010179
:101080000151800A800F140ED8B4005DD8A001D0A1
:1010900001D001D021D0010E010101010025F66E21
:1010A000F76A100EF722F86A000EF8220800010114
:1010B000F5CF10F1A1EC0CF001010101004B012B67
:1010C000010101010151800A800F140ED8B4005DA6
:1010D000D8A001D001D0DFD7880E01010101086F2F
:1010E000130E0101096F3BEC0CF00101026F010EC0
:1010F00001010101066F010102517AEC0CF00101BE
:10110000026FF90ECB6E01010251CA689D82F28C0A
:101110009F82000E006E000E016E0101026F000E34
:10112000026E01010251F28E807281A201D001D0C3
:1011300063D0010E086E000E096E000E0A6E000EDE
:101140000B6EB6EC0BF004C104F105C105F1590EAC
:1011500001010101066F1B0E0101076F91EC09F0FF
:10116000010E01010101042501010101086F000EBA
:101170000101010105210101096F3BEC0CF036D0A2
:101180008368010E0A6E000E0B6E81A001D001D0A3
:101190002DD0000E836E0101026F000E01010101CE
:1011A000056F010102510101036F010E01010101EF
:1011B000046F01010351F9EC0BF0040E0101010170
:1011C000066F000E0101076F00C004F101C005F1B8
:1011D000FFEC08F0000E086E000E096E000E0A6E9D
:1011E000000E0B6E000E006E000E016E095008100E
:1011F000D8A401D001D0C4D797D70CEF04F00101D7
:101200000E6F000E01010101086F01010E51040E65
:1012100001010101086501D001D001D036D00101E2
:10122000090E010101010825E96EEA6A0101010EBA
:10123000EA220A0E01010101126F000E0101136F73
:1012400004C110F105C111F121EC0BF00101010104
:101250001051EF6E0A0E01010101126F000E010123
:10126000136F04C110F105C111F173EC0AF010C144
:1012700004F111C105F101010101082B040E010166
:101280000101086501D001D0CAD701010E6F050E1A
:1012900001010101086F01010E51010101010867FF
:1012A00001D001D001D03CD0010108C10EF10101F3
:1012B0000F6B01010101075101010F1905E1010146
:1012C0000101065101010E19D8A401D001D00AD0A4
:1012D00001010E6F2E0E01010101106F01010E516F
:1012E000A1EC0CF008C10EF1FF0E01010E27010167
:1012F000090E01010E25E96EEA6A0101010EEA22DA
:10130000EF50300F01010101106FA1EC0CF0010151
:101310000101080701010101086701D001D0C4D70C
:10132000120001010A6F000E01010101086F0101A5
:101330000A510101010105AF01D001D00FD0010117
:101340000101046D0101051FD8B0052B01010A6FD1
:10135000010E01010101086F01010A5101010101A2
:1013600007AF01D001D007D001010101066D0101D5
:10137000071FD8B0072B0101010107510611D8B48E
:1013800001D001D03ED001010A6F010E010101011F
:10139000096F01010A5109D00101D89001010637F6
:1013A0000101073701010101092B0101010107AF0B
:1013B00001D001D0F1D70101010106510101010164
:1013C000045D010101010751010101010559D8A086
:1013D00001D001D00CD00101010106510101010130
:1013E000045F01010101075101010101055B0101D8
:1013F000D890010107330101063301010101092FD2
:10140000DAD7010101010851D8B401D001D007D0C9
:1014100001010101046D0101051FD8B0052B04C1B4
:1014200004F105C105F100D012000600EACF1CF15D
:10143000E1CF1DF1E2CF1EF1D9CF1FF1DACF20F1BC
:10144000F3CF21F1F4CF22F1F6CF23F1F7CF24F13E
:10145000F8CF25F19EA201D001D02AD082700A04D3
:101460000B10D8A401D001D006D00101186F010ED5
:10147000026E010118510A50020A0B10D8A401D0C3
:1014800001D006D00101186F000E026E0101185143
:1014900081A401D001D004D0000E006E000E016EB8
:1014A0000250D8B401D001D002D0004A012A9E9245
:1014B00025C1F8FF24C1F7FF23C1F6FF22C1F4FFC5
:1014C00021C1F3FF20C1DAFF1FC1D9FF1EC1E2FF16
:1014D0001DC1E1FF1CC1EAFF1BC1E9FF1AC1FBFFEF
:1014E00019C1FAFF1100000E01010101156F000E74
:1014F0000101166F0101010113511211D8B401D07D
:1015000001D047D00101176F010E01010101146FD5
:101510000101175109D00101D890010112370101D1
:10152000133701010101142B0101010113AF01D097
:1015300001D0F1D70101D89001011537010116370B
:1015400001010101125101010101105D01010101BF
:101550001351010101011159D8A001D001D00FD0C0
:1015600001010101125101010101105F010101019D
:10157000135101010101115B0101010115810101FB
:10158000D890010113330101123301010101142F1D
:10159000D1D715C110F116C111F100D01200000E03
:1015A000010101010E6F000E01010F6F000E01011C
:1015B000106F000E0101116F0101010106A101D0A0
:1015C00001D018D0010101010A51010101010E27CA
:1015D000010101010B51010101010F230101010171
:1015E0000C51010101011023010101010D51010103
:1015F000010111230101D89001010A3701010B37C4
:1016000001010C3701010D370101D89001010933A7
:1016100001010833010107330101063301010951BA
:10162000061107110811D8A401D001D0C5D70EC1E9
:1016300006F10FC107F110C108F111C109F100D085
:1016400012000101010113511211D8B401D001D0CF
:101650003ED00101156F010E01010101146F01015E
:10166000155109D00101D89001011237010113373A
:1016700001010101142B0101010113AF01D001D0BF
:10168000F1D701010101125101010101105D0101B8
:1016900001011351010101011159D8A001D001D05C
:1016A0000CD001010101125101010101105F010182
:1016B0000101135101010101115B0101D8900101E8
:1016C00013330101123301010101142FDAD710C1C4
:1016D00010F111C111F100D01200010E956E83922C
:1016E0000101046F330E01010101066F0101045174
:1016F0007AEC0CF00101046F320E01010101066F5A
:10170000010104517AEC0CF00101046F280E010173
:101710000101066F010104517AEC0CF00101046F24
:101720000E0E01010101066F010104517AEC0CF06B
:101730000101046F010E01010101066F0101045155
:101740007AEC0CF00101046F060E01010101066F35
:10175000010104517AEC0CF0640E01010101086FE3
:10176000000E0101096F3BEC0CF01200036601D082
:1017700001D009D0010E01010101066F000E010127
:10178000076FDAEC0CF06D0E010101010A6F4E0ECD
:1017900001010B6FC60E01010C6F410E01010D6FAF
:1017A00004C006F105C007F106C008F107C009F141
:1017B000CFEC0AF0390E010101010625046E300E4E
:1017C000010101010721056E000E0101010108213F
:1017D000066E000E010101010921076EFF0E0614BD
:1017E00001010101046F7F0E07140101056F00D094
:1017F000120001010101046701D001D009D00101EB
:1018000001010551800F01010101066F7AEC0CF016
:10181000010101010405D8A401D001D009D00101C2
:1018200001010551C00F01010101066F7AEC0CF0B6
:10183000010101010451020AD8A401D001D009D04C
:10184000010101010551940F01010101066F7AECBC
:101850000CF0010101010451030AD8A401D001D008
:1018600009D0010101010551D40F01010101066FE9
:101870007AEC0CF01200000E010101010A6F000E5B
:1018800001010B6F26D0000E010101010C6F000E4B
:1018900001010D6F690E010101010C5D020E0101D4
:1018A0000D59D8A001D001D001D00FD00101010104
:1018B0000C4B0D2B690E010101010C5D020E0101A3
:1018C0000D59D8A001D001D0F1D7010101010A4B77
:1018D0000B2B010101010851010101010A5D010108
:1018E00001010951010101010B59D8A001D001D01A
:1018F000CAD71200839406C107F1F00E0101071741
:1019000083500F0B01010711836EE9EC0CF006C147
:1019100007F10101073BF00E0717F00E0101071751
:1019200083500F0B01010711836EE9EC0CF00A0ED6
:1019300001010101086F000E0101096F3BEC0CF081
:101940001200838410C111F1F00E010111178350B0
:101950000F0B01011111836EE9EC0CF010C111F1B4
:101960000101113BF00E1117F00E01011117835008
:101970000F0B01011111836EE9EC0CF01200010153
:10198000136F000E01010101126F01011351130EBB
:1019900001010101126501D001D001D00AD001017D
:1019A0000101122B130E01010101126501D001D0BA
:1019B000F6D71200010106C104F0010107C105F0CC
:1019C000066A076A0101086F010E036E01010851E2
:1019D00012008396BFEC0CF08386BFEC0CF083966C
:0619E000BFEC0CF0120048
:00000001FF
