:040800000CEF04F005
:10080800FACF18F1FBCF19F1E9CF1AF109ED05F08C
:1008180000EE00F010EE03F014EC04F0AEEF05F07B
:10082800EE6AE550E150FCE1E250FAE11200010104
:100838000D6F000E01010101066F01010D51040E3B
:1008480001010101066501D001D001D036D00101B6
:10085800070E010101010625E96EEA6A0101010E90
:10086800EA220A0E01010101116F000E0101126F47
:1008780002C10FF103C110F162EC05F001010101A1
:100888000F51EF6E0A0E01010101116F000E0101F7
:10089800126F02C10FF103C110F1ADEC04F00FC1EA
:1008A80002F110C103F101010101062B040E01013F
:1008B8000101066501D001D0CAD701010D6F050EEF
:1008C80001010101066F01010D51010101010667D6
:1008D80001D001D001D03CD0010106C10DF10101C8
:1008E8000E6B01010101055101010E1905E101011C
:1008F8000101045101010D19D8A401D001D00AD079
:1009080001010D6F2E0E010101010F6F01010D5143
:10091800EBEC06F006C10DF1FF0E01010D270101F8
:10092800070E01010D25E96EEA6A0101010EEA22AE
:10093800EF50300F010101010F6FEBEC06F00101E0
:100948000101060701010101066701D001D0C4D7E2
:100958001200000E01010101146F000E0101156F54
:100968000101010112511111D8B401D001D047D0B1
:100978000101166F010E01010101136F01011651EA
:1009880009D00101D8900101113701011237010185
:100998000101132B0101010112AF01D001D0F1D7E0
:1009A8000101D89001011437010115370101010136
:1009B8001151010101010F5D0101010112510101F4
:1009C80001011059D8A001D001D00FD001010101B7
:1009D8001151010101010F5F0101010112510101D2
:1009E8000101105B0101010114810101D89001018D
:1009F80012330101113301010101132FD1D714C1A1
:100A08000FF115C110F100D012000600EACF1BF15A
:100A1800E1CF1CF1E2CF1DF1D9CF1EF1DACF1FF1E2
:100A2800F3CF20F1F4CF21F1F6CF22F1F7CF23F164
:100A3800F8CF24F19EA201D001D025D0827081A0E8
:100A480001D001D006D00101176F010E006E01011F
:100A5800175181A201D001D006D00101176F000EF5
:100A6800006E0101175181A401D001D004D0000EFD
:100A7800016E000E026E0050D8B401D001D002D031
:100A8800014A022A9E9224C1F8FF23C1F7FF22C11E
:100A9800F6FF21C1F4FF20C1F3FF1FC1DAFF1EC119
:100AA800D9FF1DC1E2FF1CC1E1FF1BC1EAFF1AC14A
:100AB800E9FF19C1FBFF18C1FAFF1100010101018B
:100AC80012511111D8B401D001D03ED00101146FD8
:100AD800010E01010101136F0101145109D0010137
:100AE800D890010111370101123701010101132BBF
:100AF8000101010112AF01D001D0F1D701010101BB
:100B08001151010101010F5D0101010112510101A2
:100B180001011059D8A001D001D00CD00101010168
:100B28001151010101010F5F010101011251010180
:100B38000101105B0101D890010112330101113349
:100B480001010101132FDAD70FC10FF110C110F104
:100B580000D01200000E926E9368000E946E000E84
:100B6800956E0101006F0F0EC16E01010051FAEC84
:100B780005F00101006FF90ECB6E01010051010172
:100B8800006F4D0ECA6E010100519D82F28C9F824A
:100B9800000E016E000E026E0101006F000E006E65
:100BA80001010051F28E80720101006F000E0101F7
:100BB8000101036F010100510101016F010E0101E3
:100BC8000101026F0101015143EC06F0030E01011E
:100BD8000101046F000E0101056F01C002F102C09E
:100BE80003F11BEC04F0DFD70CEF04F0010E956E57
:100BF80083920101026F330E01010101046F0101AB
:100C08000251C4EC06F00101026F320E010101012C
:100C1800046F01010251C4EC06F00101026F280EB5
:100C280001010101046F01010251C4EC06F0010148
:100C3800026F0E0E01010101046F01010251C4ECA3
:100C480006F00101026F010E01010101046F0101AB
:100C58000251C4EC06F00101026F060E0101010108
:100C6800046F01010251C4EC06F0640E0101010198
:100C7800066F000E0101076F85EC06F012000101F6
:100C88000101026701D001D009D00101010103511E
:100C9800800F01010101046FC4EC06F0010101019C
:100CA8000205D8A401D001D009D0010101010351E6
:100CB800C00F01010101046FC4EC06F0010101013C
:100CC8000251020AD8A401D001D009D001010101C2
:100CD8000351940F01010101046FC4EC06F00101F6
:100CE80001010251030AD8A401D001D009D00101A1
:100CF80001010351D40F01010101046FC4EC06F096
:100D08001200000E01010101086F000E0101096FB8
:100D180026D0000E010101010A6F000E01010B6FC0
:100D2800690E010101010A5D020E01010B59D8A0EB
:100D380001D001D001D00FD0010101010A4B0B2BCA
:100D4800690E010101010A5D020E01010B59D8A0CB
:100D580001D001D0F1D701010101084B092B010194
:100D68000101065101010101085D0101010107515D
:100D7800010101010959D8A001D001D0CAD7120038
:100D8800839404C105F1F00E0101051783500F0B80
:100D980001010511836E24EC07F004C105F101017E
:100DA800053BF00E0517F00E0101051783500F0BD8
:100DB80001010511836E24EC07F00A0E01010101FF
:100DC800066F000E0101076F85EC06F012008384A0
:100DD8000FC110F1F00E0101101783500F0B010124
:100DE8001011836E24EC07F00FC110F10101103BC4
:100DF800F00E1017F00E0101101783500F0B0101B0
:100E08001011836E24EC07F012000101126F000E1E
:100E180001010101116F01011251130E01010101BC
:100E2800116501D001D001D00AD001010101112BB7
:100E3800130E01010101116501D001D0F6D712008E
:100E4800839609EC07F0838609EC07F0839609EC92
:040E580007F012008D
:00000001FF
