:040800000CEF04F005
:10080800FACFF3F0FBCFF4F0E9CFF5F002ED08F002
:040818003FEF08F0B6
:10100000008000000600EACFF6F0E1CFF7F0E2CF73
:10101000F8F0D9CFF9F0DACFFAF0F3CFFBF0F4CF54
:10102000FCF0F6CFFDF0F7CFFEF0F8CFFFF09EA278
:1010300001D001D009D08150D8B401D001D002D064
:10104000827001D082909E92FFC0F8FFFEC0F7FF31
:10105000FDC0F6FFFCC0F4FFFBC0F3FFFAC0DAFFEF
:10106000F9C0D9FFF8C0E2FFF7C0E1FFF6C0EAFF20
:10107000F5C0E9FFF4C0FBFFF3C0FAFF1100000E5A
:10108000926E9368000E946E000E956E000E966E32
:101090000001F26F0F0EC16E0001F251CA849D82F1
:1010A000F28C0001F26F7F0ECA6E0001F251000156
:1010B000F26F310ECB6E0001F251F28E81A001D0A1
:1010C00001D009D0010EF66E100EF76E000EF86E0C
:0C10D0000800F5CFCBFFF2D70CEF04F0C6
:00000001FF
